{
  "contractName": "Instagram",
  "abi": [
    {
      "anonymous": false,
      "inputs": [
        {
          "indexed": false,
          "internalType": "uint256",
          "name": "idpost",
          "type": "uint256"
        },
        {
          "indexed": false,
          "internalType": "uint256",
          "name": "idcomment",
          "type": "uint256"
        },
        {
          "indexed": false,
          "internalType": "string",
          "name": "comment",
          "type": "string"
        },
        {
          "indexed": false,
          "internalType": "address",
          "name": "author",
          "type": "address"
        }
      ],
      "name": "CommentCreated",
      "type": "event"
    },
    {
      "anonymous": false,
      "inputs": [
        {
          "indexed": false,
          "internalType": "uint256",
          "name": "id",
          "type": "uint256"
        },
        {
          "indexed": false,
          "internalType": "string",
          "name": "hashimage",
          "type": "string"
        },
        {
          "indexed": false,
          "internalType": "string",
          "name": "description",
          "type": "string"
        },
        {
          "indexed": false,
          "internalType": "address payable",
          "name": "author",
          "type": "address"
        }
      ],
      "name": "PostCreated",
      "type": "event"
    },
    {
      "anonymous": false,
      "inputs": [
        {
          "indexed": false,
          "internalType": "uint256",
          "name": "id",
          "type": "uint256"
        },
        {
          "indexed": false,
          "internalType": "uint256",
          "name": "tipamount",
          "type": "uint256"
        },
        {
          "indexed": false,
          "internalType": "address",
          "name": "currentaccount",
          "type": "address"
        },
        {
          "indexed": false,
          "internalType": "address payable",
          "name": "author",
          "type": "address"
        }
      ],
      "name": "TipPosted",
      "type": "event"
    },
    {
      "inputs": [],
      "name": "PostCounter",
      "outputs": [
        {
          "internalType": "uint256",
          "name": "",
          "type": "uint256"
        }
      ],
      "stateMutability": "view",
      "type": "function",
      "constant": true
    },
    {
      "inputs": [
        {
          "internalType": "uint256",
          "name": "",
          "type": "uint256"
        }
      ],
      "name": "posts",
      "outputs": [
        {
          "internalType": "uint256",
          "name": "id",
          "type": "uint256"
        },
        {
          "internalType": "uint256",
          "name": "likeCounter",
          "type": "uint256"
        },
        {
          "internalType": "uint256",
          "name": "disLikeCounter",
          "type": "uint256"
        },
        {
          "internalType": "uint256",
          "name": "commentCounter",
          "type": "uint256"
        },
        {
          "internalType": "uint256",
          "name": "tipAmount",
          "type": "uint256"
        },
        {
          "internalType": "string",
          "name": "hashImage",
          "type": "string"
        },
        {
          "internalType": "string",
          "name": "description",
          "type": "string"
        },
        {
          "internalType": "string",
          "name": "date",
          "type": "string"
        },
        {
          "internalType": "address payable",
          "name": "author",
          "type": "address"
        }
      ],
      "stateMutability": "view",
      "type": "function",
      "constant": true
    },
    {
      "inputs": [
        {
          "internalType": "string",
          "name": "hashimg",
          "type": "string"
        },
        {
          "internalType": "string",
          "name": "des",
          "type": "string"
        },
        {
          "internalType": "string",
          "name": "date",
          "type": "string"
        }
      ],
      "name": "UplodPost",
      "outputs": [],
      "stateMutability": "nonpayable",
      "type": "function"
    },
    {
      "inputs": [
        {
          "internalType": "uint256",
          "name": "_id",
          "type": "uint256"
        }
      ],
      "name": "getPost",
      "outputs": [
        {
          "components": [
            {
              "internalType": "uint256",
              "name": "id",
              "type": "uint256"
            },
            {
              "internalType": "uint256",
              "name": "likeCounter",
              "type": "uint256"
            },
            {
              "internalType": "uint256",
              "name": "disLikeCounter",
              "type": "uint256"
            },
            {
              "internalType": "uint256",
              "name": "commentCounter",
              "type": "uint256"
            },
            {
              "internalType": "uint256",
              "name": "tipAmount",
              "type": "uint256"
            },
            {
              "internalType": "string",
              "name": "hashImage",
              "type": "string"
            },
            {
              "internalType": "string",
              "name": "description",
              "type": "string"
            },
            {
              "internalType": "string",
              "name": "date",
              "type": "string"
            },
            {
              "internalType": "address payable",
              "name": "author",
              "type": "address"
            }
          ],
          "internalType": "struct Instagram.Post",
          "name": "",
          "type": "tuple"
        }
      ],
      "stateMutability": "view",
      "type": "function",
      "constant": true
    },
    {
      "inputs": [
        {
          "internalType": "uint256",
          "name": "_id",
          "type": "uint256"
        }
      ],
      "name": "AddLike",
      "outputs": [],
      "stateMutability": "nonpayable",
      "type": "function"
    },
    {
      "inputs": [
        {
          "internalType": "uint256",
          "name": "_id",
          "type": "uint256"
        }
      ],
      "name": "SubLike",
      "outputs": [],
      "stateMutability": "nonpayable",
      "type": "function"
    },
    {
      "inputs": [
        {
          "internalType": "uint256",
          "name": "_id",
          "type": "uint256"
        }
      ],
      "name": "getLike",
      "outputs": [
        {
          "internalType": "address[]",
          "name": "",
          "type": "address[]"
        }
      ],
      "stateMutability": "view",
      "type": "function",
      "constant": true
    },
    {
      "inputs": [
        {
          "internalType": "uint256",
          "name": "_id",
          "type": "uint256"
        }
      ],
      "name": "AdddisLike",
      "outputs": [],
      "stateMutability": "nonpayable",
      "type": "function"
    },
    {
      "inputs": [
        {
          "internalType": "uint256",
          "name": "_id",
          "type": "uint256"
        }
      ],
      "name": "SubdisLike",
      "outputs": [],
      "stateMutability": "nonpayable",
      "type": "function"
    },
    {
      "inputs": [
        {
          "internalType": "uint256",
          "name": "_id",
          "type": "uint256"
        }
      ],
      "name": "getdisLike",
      "outputs": [
        {
          "internalType": "address[]",
          "name": "",
          "type": "address[]"
        }
      ],
      "stateMutability": "view",
      "type": "function",
      "constant": true
    },
    {
      "inputs": [
        {
          "internalType": "uint256",
          "name": "_id",
          "type": "uint256"
        },
        {
          "internalType": "string",
          "name": "comment",
          "type": "string"
        },
        {
          "internalType": "string",
          "name": "date",
          "type": "string"
        }
      ],
      "name": "AddComment",
      "outputs": [],
      "stateMutability": "nonpayable",
      "type": "function"
    },
    {
      "inputs": [
        {
          "internalType": "uint256",
          "name": "_id",
          "type": "uint256"
        }
      ],
      "name": "getComments",
      "outputs": [
        {
          "components": [
            {
              "internalType": "uint256",
              "name": "id",
              "type": "uint256"
            },
            {
              "internalType": "string",
              "name": "comment",
              "type": "string"
            },
            {
              "internalType": "string",
              "name": "date",
              "type": "string"
            },
            {
              "internalType": "address",
              "name": "author",
              "type": "address"
            }
          ],
          "internalType": "struct Instagram.Comment[]",
          "name": "",
          "type": "tuple[]"
        }
      ],
      "stateMutability": "view",
      "type": "function",
      "constant": true
    },
    {
      "inputs": [
        {
          "internalType": "uint256",
          "name": "_id",
          "type": "uint256"
        }
      ],
      "name": "TipPosts",
      "outputs": [],
      "stateMutability": "payable",
      "type": "function",
      "payable": true
    }
  ],
  "bytecode": "0x608060405234801561001057600080fd5b50611ced806100206000396000f3fe6080604052600436106100c25760003560e01c80637fc59ce91161007f578063b8a7999311610059578063b8a7999314610221578063cbf3f84d14610241578063d5be17bd14610261578063db937b0f1461028157600080fd5b80637fc59ce9146101ce578063a481ee3a146101ee578063b1d855ee1461020157600080fd5b80630b1e7f83146100c757806323edf697146101055780632d742717146101325780633c7300f81461015f57806340731c2414610181578063600cfe51146101ae575b600080fd5b3480156100d357600080fd5b506100e76100e2366004611612565b6102a5565b6040516100fc99989796959493929190611671565b60405180910390f35b34801561011157600080fd5b50610125610120366004611612565b610494565b6040516100fc91906116eb565b34801561013e57600080fd5b5061015261014d366004611612565b6106e1565b6040516100fc9190611790565b34801561016b57600080fd5b5061017f61017a366004611612565b6107bb565b005b34801561018d57600080fd5b506101a161019c366004611612565b610849565b6040516100fc91906117dd565b3480156101ba57600080fd5b506101526101c9366004611612565b610ae3565b3480156101da57600080fd5b5061017f6101e9366004611936565b610bbd565b61017f6101fc366004611612565b610d32565b34801561020d57600080fd5b5061017f61021c366004611612565b61108b565b34801561022d57600080fd5b5061017f61023c366004611612565b611136565b34801561024d57600080fd5b5061017f61025c3660046119a3565b6111fb565b34801561026d57600080fd5b5061017f61027c366004611612565b611445565b34801561028d57600080fd5b5061029760045481565b6040519081526020016100fc565b60006020528060005260406000206000915090508060000154908060010154908060020154908060030154908060040154908060050180546102e6906119f2565b80601f0160208091040260200160405190810160405280929190818152602001828054610312906119f2565b801561035f5780601f106103345761010080835404028352916020019161035f565b820191906000526020600020905b81548152906001019060200180831161034257829003601f168201915b505050505090806006018054610374906119f2565b80601f01602080910402602001604051908101604052809291908181526020018280546103a0906119f2565b80156103ed5780601f106103c2576101008083540402835291602001916103ed565b820191906000526020600020905b8154815290600101906020018083116103d057829003601f168201915b505050505090806007018054610402906119f2565b80601f016020809104026020016040519081016040528092919081815260200182805461042e906119f2565b801561047b5780601f106104505761010080835404028352916020019161047b565b820191906000526020600020905b81548152906001019060200180831161045e57829003601f168201915b505050600890930154919250506001600160a01b031689565b6000818152602081905260408120600301546060919067ffffffffffffffff8111156104c2576104c2611893565b60405190808252806020026020018201604052801561052757816020015b610514604051806080016040528060008152602001606081526020016060815260200160006001600160a01b031681525090565b8152602001906001900390816104e05790505b50905060005b6000848152602081905260409020600301548110156106da5760008481526001602081815260408084208585528252928390208351608081019094528054845291820180549184019161057f906119f2565b80601f01602080910402602001604051908101604052809291908181526020018280546105ab906119f2565b80156105f85780601f106105cd576101008083540402835291602001916105f8565b820191906000526020600020905b8154815290600101906020018083116105db57829003601f168201915b50505050508152602001600282018054610611906119f2565b80601f016020809104026020016040519081016040528092919081815260200182805461063d906119f2565b801561068a5780601f1061065f5761010080835404028352916020019161068a565b820191906000526020600020905b81548152906001019060200180831161066d57829003601f168201915b5050509183525050600391909101546001600160a01b031660209091015282518390839081106106bc576106bc611a2c565b602002602001018190525080806106d290611a58565b91505061052d565b5092915050565b6000818152602081905260408120600101546060919067ffffffffffffffff81111561070f5761070f611893565b604051908082528060200260200182016040528015610738578160200160208202803683370190505b50905060005b6000848152602081905260409020600101548110156106da57600084815260026020908152604080832084845290915290205482516001600160a01b039091169083908390811061079157610791611a2c565b6001600160a01b0390921660209283029190910190910152806107b381611a58565b91505061073e565b60045481106107e55760405162461bcd60e51b81526004016107dc90611a71565b60405180910390fd5b600081815260208190526040812060010180549182919061080583611a58565b91905055506108113390565b6000928352600260209081526040808520938552929052912080546001600160a01b0319166001600160a01b03909216919091179055565b6108a1604051806101200160405280600081526020016000815260200160008152602001600081526020016000815260200160608152602001606081526020016060815260200160006001600160a01b031681525090565b60045482106108c25760405162461bcd60e51b81526004016107dc90611a71565b600080838152602001908152602001600020604051806101200160405290816000820154815260200160018201548152602001600282015481526020016003820154815260200160048201548152602001600582018054610922906119f2565b80601f016020809104026020016040519081016040528092919081815260200182805461094e906119f2565b801561099b5780601f106109705761010080835404028352916020019161099b565b820191906000526020600020905b81548152906001019060200180831161097e57829003601f168201915b505050505081526020016006820180546109b4906119f2565b80601f01602080910402602001604051908101604052809291908181526020018280546109e0906119f2565b8015610a2d5780601f10610a0257610100808354040283529160200191610a2d565b820191906000526020600020905b815481529060010190602001808311610a1057829003601f168201915b50505050508152602001600782018054610a46906119f2565b80601f0160208091040260200160405190810160405280929190818152602001828054610a72906119f2565b8015610abf5780601f10610a9457610100808354040283529160200191610abf565b820191906000526020600020905b815481529060010190602001808311610aa257829003601f168201915b5050509183525050600891909101546001600160a01b031660209091015292915050565b6000818152602081905260408120600201546060919067ffffffffffffffff811115610b1157610b11611893565b604051908082528060200260200182016040528015610b3a578160200160208202803683370190505b50905060005b6000848152602081905260409020600201548110156106da57600084815260036020908152604080832084845290915290205482516001600160a01b0390911690839083908110610b9357610b93611a2c565b6001600160a01b039092166020928302919091019091015280610bb581611a58565b915050610b40565b6004548310610bde5760405162461bcd60e51b81526004016107dc90611ab5565b6000825111610c475760405162461bcd60e51b815260206004820152602f60248201527f496e7374616772616d3a54686973204465736372697074696f6e20416464436f60448201526e1b5b595b9d08125b98dbdc9c9958dd608a1b60648201526084016107dc565b600083815260208181526040808320600301546001808452828520828652909352922082815501610c788482611b4a565b5060008481526001602090815260408083208484529091529020600201610c9f8382611b4a565b5060008481526001602090815260408083208484528252808320600390810180546001600160a01b0319163317905587845291839052822001805491610ce483611a58565b91905055507f303b5fc799fd9ae7d61dfd1fafc59a312028e848d72a8964b3ee09fef1d1f141848285610d143390565b604051610d249493929190611c0a565b60405180910390a150505050565b6004548110610d535760405162461bcd60e51b81526004016107dc90611ab5565b6000806000838152602001908152602001600020604051806101200160405290816000820154815260200160018201548152602001600282015481526020016003820154815260200160048201548152602001600582018054610db5906119f2565b80601f0160208091040260200160405190810160405280929190818152602001828054610de1906119f2565b8015610e2e5780601f10610e0357610100808354040283529160200191610e2e565b820191906000526020600020905b815481529060010190602001808311610e1157829003601f168201915b50505050508152602001600682018054610e47906119f2565b80601f0160208091040260200160405190810160405280929190818152602001828054610e73906119f2565b8015610ec05780601f10610e9557610100808354040283529160200191610ec0565b820191906000526020600020905b815481529060010190602001808311610ea357829003601f168201915b50505050508152602001600782018054610ed9906119f2565b80601f0160208091040260200160405190810160405280929190818152602001828054610f05906119f2565b8015610f525780601f10610f2757610100808354040283529160200191610f52565b820191906000526020600020905b815481529060010190602001808311610f3557829003601f168201915b5050509183525050600891909101546001600160a01b0316602090910152610100810151909150610f8381346114f4565b3482608001818151610f959190611c42565b9052506000838152602081815260409182902084518155908401516001820155908301516002820155606083015160038201556080830151600482015560a08301518391906005820190610fe99082611b4a565b5060c08201516006820190610ffe9082611b4a565b5060e082015160078201906110139082611b4a565b506101009190910151600890910180546001600160a01b0319166001600160a01b0392831617905560408051858152346020820152339181019190915290821660608201527f22ef4b543cb899e27e3613228b525999a96219c2ea7ff37827f83daa46671a85906080015b60405180910390a1505050565b60045481106110e85760405162461bcd60e51b8152602060048201526024808201527f496e7372616772616d3a2054686973204964205375624c696b6520496e636f726044820152631c9958dd60e21b60648201526084016107dc565b600081815260208190526040812060010180549182919061110883611c5b565b90915550506000918252600260209081526040808420928452919052902080546001600160a01b0319169055565b60045481106111975760405162461bcd60e51b815260206004820152602760248201527f496e7372616772616d3a2054686973204964204164646469734c696b6520496e60448201526618dbdc9c9958dd60ca1b60648201526084016107dc565b60008181526020819052604081206002018054918291906111b783611a58565b91905055506111c33390565b6000928352600360209081526040808520938552929052912080546001600160a01b0319166001600160a01b03909216919091179055565b600083511161124c5760405162461bcd60e51b815260206004820152601d60248201527f496e7374616772616d3a54686973204861736820496e636f727265637400000060448201526064016107dc565b60008251116112a95760405162461bcd60e51b8152602060048201526024808201527f496e7374616772616d3a54686973204465736372697074696f6e20496e636f726044820152631c9958dd60e21b60648201526084016107dc565b336112f65760405162461bcd60e51b815260206004820152601d60248201527f496e7374616772616d3a54686973204861736820496e636f727265637400000060448201526064016107dc565b60405180610120016040528060045481526020016000815260200160008152602001600081526020016000815260200184815260200183815260200182815260200161133f3390565b6001600160a01b031690526004805460009081526020818152604091829020845181559084015160018201559083015160028201556060830151600382015560808301519181019190915560a0820151600582019061139e9082611b4a565b5060c082015160068201906113b39082611b4a565b5060e082015160078201906113c89082611b4a565b506101009190910151600890910180546001600160a01b0319166001600160a01b039092169190911790556004805490600061140383611a58565b91905055507fb80f87406b72baa5a47a424e6c8f284ee91e4fef063c94c62ab1ea33a27a858b60045484846114353390565b60405161107e9493929190611c72565b60045481106114a65760405162461bcd60e51b815260206004820152602760248201527f496e7372616772616d3a2054686973204964205375626469734c696b6520496e60448201526618dbdc9c9958dd60ca1b60648201526084016107dc565b60008181526020819052604081206002018054918291906114c683611c5b565b90915550506000918252600360209081526040808420928452919052902080546001600160a01b0319169055565b804710156115445760405162461bcd60e51b815260206004820152601d60248201527f416464726573733a20696e73756666696369656e742062616c616e636500000060448201526064016107dc565b6000826001600160a01b03168260405160006040518083038185875af1925050503d8060008114611591576040519150601f19603f3d011682016040523d82523d6000602084013e611596565b606091505b505090508061160d5760405162461bcd60e51b815260206004820152603a60248201527f416464726573733a20756e61626c6520746f2073656e642076616c75652c207260448201527f6563697069656e74206d6179206861766520726576657274656400000000000060648201526084016107dc565b505050565b60006020828403121561162457600080fd5b5035919050565b6000815180845260005b8181101561165157602081850181015186830182015201611635565b506000602082860101526020601f19601f83011685010191505092915050565b60006101208b83528a60208401528960408401528860608401528760808401528060a08401526116a38184018861162b565b905082810360c08401526116b7818761162b565b905082810360e08401526116cb818661162b565b91505060018060a01b0383166101008301529a9950505050505050505050565b60006020808301818452808551808352604092508286019150828160051b87010184880160005b8381101561178257603f19898403018552815160808151855288820151818a8701526117408287018261162b565b9150508782015185820389870152611758828261162b565b6060938401516001600160a01b031696909301959095525094870194925090860190600101611712565b509098975050505050505050565b6020808252825182820181905260009190848201906040850190845b818110156117d15783516001600160a01b0316835292840192918401916001016117ac565b50909695505050505050565b6020815281516020820152602082015160408201526040820151606082015260608201516080820152608082015160a0820152600060a08301516101208060c085015261182e61014085018361162b565b915060c0850151601f19808685030160e087015261184c848361162b565b935060e0870151915061010081878603018188015261186b858461162b565b94508088015192505050611889828601826001600160a01b03169052565b5090949350505050565b634e487b7160e01b600052604160045260246000fd5b600082601f8301126118ba57600080fd5b813567ffffffffffffffff808211156118d5576118d5611893565b604051601f8301601f19908116603f011681019082821181831017156118fd576118fd611893565b8160405283815286602085880101111561191657600080fd5b836020870160208301376000602085830101528094505050505092915050565b60008060006060848603121561194b57600080fd5b83359250602084013567ffffffffffffffff8082111561196a57600080fd5b611976878388016118a9565b9350604086013591508082111561198c57600080fd5b50611999868287016118a9565b9150509250925092565b6000806000606084860312156119b857600080fd5b833567ffffffffffffffff808211156119d057600080fd5b6119dc878388016118a9565b9450602086013591508082111561196a57600080fd5b600181811c90821680611a0657607f821691505b602082108103611a2657634e487b7160e01b600052602260045260246000fd5b50919050565b634e487b7160e01b600052603260045260246000fd5b634e487b7160e01b600052601160045260246000fd5b600060018201611a6a57611a6a611a42565b5060010190565b60208082526024908201527f496e7372616772616d3a2054686973204964204164644c696b6520496e636f726040820152631c9958dd60e21b606082015260800190565b60208082526027908201527f496e7372616772616d3a205468697320496420416464436f6d6d656e7420496e60408201526618dbdc9c9958dd60ca1b606082015260800190565b601f82111561160d57600081815260208120601f850160051c81016020861015611b235750805b601f850160051c820191505b81811015611b4257828155600101611b2f565b505050505050565b815167ffffffffffffffff811115611b6457611b64611893565b611b7881611b7284546119f2565b84611afc565b602080601f831160018114611bad5760008415611b955750858301515b600019600386901b1c1916600185901b178555611b42565b600085815260208120601f198616915b82811015611bdc57888601518255948401946001909101908401611bbd565b5085821015611bfa5787850151600019600388901b60f8161c191681555b5050505050600190811b01905550565b848152836020820152608060408201526000611c29608083018561162b565b905060018060a01b038316606083015295945050505050565b80820180821115611c5557611c55611a42565b92915050565b600081611c6a57611c6a611a42565b506000190190565b848152608060208201526000611c8b608083018661162b565b8281036040840152611c9d818661162b565b91505060018060a01b03831660608301529594505050505056fea2646970667358221220fc7e54f602dbfd06fca88306308589e23e934dd3254633dd70763d6b857f92ea64736f6c63430008110033",
  "immutableReferences": {},
  "source": "// SPDX-License-Identifier: MIT\r\npragma solidity >=0.4.22 <0.9.0;\r\n\r\nimport \"./Address.sol\";\r\nimport \"./Context.sol\";\r\n\r\ncontract Instagram is Context {\r\n    using Address for address;\r\n\r\n    struct Post {\r\n        uint256 id;\r\n        uint256 likeCounter;\r\n        uint256 disLikeCounter;\r\n        uint256 commentCounter;\r\n        uint256 tipAmount;\r\n        string hashImage;\r\n        string description;\r\n        string date;\r\n        address payable author;\r\n    }\r\n\r\n    struct Comment {\r\n        uint256 id;\r\n        string comment;\r\n        string date;\r\n        address author;\r\n    }\r\n\r\n    mapping(uint256 => Post) public posts; //posts[0] = post\r\n    mapping(uint256 => mapping(uint256 => Comment)) comments; // comments[idpost][idcomment] = comment\r\n    mapping(uint256 => mapping(uint256 => address)) likes; // likes[idpost][likecounter] = address\r\n    mapping(uint256 => mapping(uint256 => address)) dislikes;\r\n\r\n    event PostCreated(\r\n        uint256 id,\r\n        string hashimage,\r\n        string description,\r\n        address payable author\r\n    );\r\n\r\n    event CommentCreated(\r\n        uint256 idpost,\r\n        uint256 idcomment,\r\n        string comment,\r\n        address author\r\n    );\r\n\r\n    event TipPosted(\r\n        uint256 id,\r\n        uint256 tipamount,\r\n        address currentaccount,\r\n        address payable author\r\n    );\r\n\r\n    uint256 public PostCounter;\r\n\r\n    function UplodPost(\r\n        string memory hashimg,\r\n        string memory des,\r\n        string memory date\r\n    ) public {\r\n        require(bytes(hashimg).length > 0, \"Instagram:This Hash Incorrect\");\r\n        require(bytes(des).length > 0, \"Instagram:This Description Incorrect\");\r\n        require(_msgSender() != address(0), \"Instagram:This Hash Incorrect\");\r\n\r\n        posts[PostCounter] = Post(\r\n            PostCounter,\r\n            0,\r\n            0,\r\n            0,\r\n            0,\r\n            hashimg,\r\n            des,\r\n            date,\r\n            payable(_msgSender())\r\n        );\r\n        PostCounter++;\r\n\r\n        emit PostCreated(PostCounter, hashimg, des, payable(_msgSender()));\r\n    }\r\n\r\n    function getPost(uint256 _id) public view returns (Post memory) {\r\n        require(\r\n            _id >= 0 && _id < PostCounter,\r\n            \"Insragram: This Id AddLike Incorrect\"\r\n        );\r\n        return posts[_id];\r\n    }\r\n\r\n    function AddLike(uint256 _id) public {\r\n        require(\r\n            _id >= 0 && _id < PostCounter,\r\n            \"Insragram: This Id AddLike Incorrect\"\r\n        );\r\n\r\n        uint256 numberlike = posts[_id].likeCounter;\r\n        posts[_id].likeCounter++;\r\n        likes[_id][numberlike] = _msgSender();\r\n    }\r\n\r\n    function SubLike(uint256 _id) public {\r\n        require(\r\n            _id >= 0 && _id < PostCounter,\r\n            \"Insragram: This Id SubLike Incorrect\"\r\n        );\r\n\r\n        uint256 numberlike = posts[_id].likeCounter;\r\n        posts[_id].likeCounter--;\r\n        delete likes[_id][numberlike];\r\n    }\r\n\r\n    function getLike(uint256 _id) public view returns (address[] memory) {\r\n        address[] memory ret = new address[](posts[_id].likeCounter);\r\n\r\n        for (uint256 index = 0; index < posts[_id].likeCounter; index++) {\r\n            ret[index] = likes[_id][index];\r\n        }\r\n\r\n        return ret;\r\n    }\r\n\r\n    function AdddisLike(uint256 _id) public {\r\n        require(\r\n            _id >= 0 && _id < PostCounter,\r\n            \"Insragram: This Id AdddisLike Incorrect\"\r\n        );\r\n\r\n        uint256 numberdislike = posts[_id].disLikeCounter;\r\n        posts[_id].disLikeCounter++;\r\n        dislikes[_id][numberdislike] = _msgSender();\r\n    }\r\n\r\n    function SubdisLike(uint256 _id) public {\r\n        require(\r\n            _id >= 0 && _id < PostCounter,\r\n            \"Insragram: This Id SubdisLike Incorrect\"\r\n        );\r\n\r\n        uint256 numberdislike = posts[_id].disLikeCounter;\r\n        posts[_id].disLikeCounter--;\r\n        delete dislikes[_id][numberdislike];\r\n    }\r\n\r\n    function getdisLike(uint256 _id) public view returns (address[] memory) {\r\n        address[] memory ret = new address[](posts[_id].disLikeCounter);\r\n\r\n        for (uint256 index = 0; index < posts[_id].disLikeCounter; index++) {\r\n            ret[index] = dislikes[_id][index];\r\n        }\r\n\r\n        return ret;\r\n    }\r\n\r\n    function AddComment(\r\n        uint256 _id,\r\n        string memory comment,\r\n        string memory date\r\n    ) public {\r\n        require(\r\n            _id >= 0 && _id < PostCounter,\r\n            \"Insragram: This Id AddComment Incorrect\"\r\n        );\r\n\r\n        require(\r\n            bytes(comment).length > 0,\r\n            \"Instagram:This Description AddComment Incorrect\"\r\n        );\r\n\r\n        uint256 count = posts[_id].commentCounter;\r\n        comments[_id][count].id = count;\r\n        comments[_id][count].comment = comment;\r\n        comments[_id][count].date = date;\r\n        comments[_id][count].author = _msgSender();\r\n\r\n        posts[_id].commentCounter++;\r\n\r\n        emit CommentCreated(_id, count, comment, _msgSender());\r\n    }\r\n\r\n    function getComments(uint256 _id) public view returns (Comment[] memory) {\r\n        Comment[] memory ret = new Comment[](posts[_id].commentCounter);\r\n\r\n        for (uint256 index = 0; index < posts[_id].commentCounter; index++) {\r\n            ret[index] = comments[_id][index];\r\n        }\r\n\r\n        return ret;\r\n    }\r\n\r\n    function TipPosts(uint256 _id) public payable {\r\n        require(\r\n            _id >= 0 && _id < PostCounter,\r\n            \"Insragram: This Id AddComment Incorrect\"\r\n        );\r\n\r\n        Post memory post = posts[_id];\r\n\r\n        address payable authoraddress = post.author;\r\n        Address.sendValue(authoraddress, msg.value);\r\n\r\n        post.tipAmount += msg.value;\r\n\r\n        posts[_id] = post;\r\n\r\n        emit TipPosted(_id, msg.value, _msgSender(), authoraddress);\r\n\r\n    }\r\n}\r\n",
  "sourcePath": "C:\\Users\\sinab\\OneDrive\\Desktop\\Code\\Instagram\\Contract\\contracts\\Instagram.sol",
  "compiler": {
    "name": "solc",
    "version": "0.8.17+commit.8df45f5f.Emscripten.clang"
  },
  "schemaVersion": "3.4.11",
  "updatedAt": "2022-12-29T11:33:42.433Z",
  "networkType": "ethereum",
  "devdoc": {
    "kind": "dev",
    "methods": {},
    "version": 1
  },
  "userdoc": {
    "kind": "user",
    "methods": {},
    "version": 1
  }
}